{
  "contractName": "Pool",
  "abi": [
    {
      "inputs": [
        {
          "internalType": "address",
          "name": "_tokenAddress",
          "type": "address"
        }
      ],
      "stateMutability": "nonpayable",
      "type": "constructor"
    },
    {
      "anonymous": false,
      "inputs": [
        {
          "indexed": true,
          "internalType": "address",
          "name": "owner",
          "type": "address"
        },
        {
          "indexed": false,
          "internalType": "uint256",
          "name": "amount",
          "type": "uint256"
        }
      ],
      "name": "BalanceWithdraw",
      "type": "event"
    },
    {
      "anonymous": false,
      "inputs": [
        {
          "indexed": false,
          "internalType": "bool",
          "name": "isActive",
          "type": "bool"
        }
      ],
      "name": "SaleStatusChanged",
      "type": "event"
    },
    {
      "anonymous": false,
      "inputs": [
        {
          "indexed": true,
          "internalType": "address",
          "name": "buyer",
          "type": "address"
        },
        {
          "indexed": false,
          "internalType": "uint256",
          "name": "amount",
          "type": "uint256"
        },
        {
          "indexed": false,
          "internalType": "uint256",
          "name": "cost",
          "type": "uint256"
        }
      ],
      "name": "TokensBuyPurchased",
      "type": "event"
    },
    {
      "inputs": [],
      "name": "Owner",
      "outputs": [
        {
          "internalType": "address",
          "name": "",
          "type": "address"
        }
      ],
      "stateMutability": "view",
      "type": "function",
      "constant": true
    },
    {
      "inputs": [],
      "name": "Rate",
      "outputs": [
        {
          "internalType": "uint256",
          "name": "",
          "type": "uint256"
        }
      ],
      "stateMutability": "view",
      "type": "function",
      "constant": true
    },
    {
      "inputs": [],
      "name": "Token",
      "outputs": [
        {
          "internalType": "contract IERC20",
          "name": "",
          "type": "address"
        }
      ],
      "stateMutability": "view",
      "type": "function",
      "constant": true
    },
    {
      "inputs": [],
      "name": "isSaleActive",
      "outputs": [
        {
          "internalType": "bool",
          "name": "",
          "type": "bool"
        }
      ],
      "stateMutability": "view",
      "type": "function",
      "constant": true
    },
    {
      "inputs": [
        {
          "internalType": "address",
          "name": "",
          "type": "address"
        }
      ],
      "name": "purchasedTokens",
      "outputs": [
        {
          "internalType": "uint256",
          "name": "",
          "type": "uint256"
        }
      ],
      "stateMutability": "view",
      "type": "function",
      "constant": true
    },
    {
      "inputs": [
        {
          "internalType": "address",
          "name": "_tokenAddress",
          "type": "address"
        }
      ],
      "name": "setToken",
      "outputs": [],
      "stateMutability": "nonpayable",
      "type": "function"
    },
    {
      "inputs": [],
      "name": "toggleSaleStatus",
      "outputs": [],
      "stateMutability": "nonpayable",
      "type": "function"
    },
    {
      "inputs": [],
      "name": "buyTokens",
      "outputs": [],
      "stateMutability": "payable",
      "type": "function",
      "payable": true
    },
    {
      "inputs": [],
      "name": "getPurchased",
      "outputs": [
        {
          "internalType": "uint256[]",
          "name": "",
          "type": "uint256[]"
        },
        {
          "internalType": "address[]",
          "name": "",
          "type": "address[]"
        }
      ],
      "stateMutability": "view",
      "type": "function",
      "constant": true
    },
    {
      "inputs": [],
      "name": "getContractBalances",
      "outputs": [
        {
          "internalType": "uint256",
          "name": "",
          "type": "uint256"
        }
      ],
      "stateMutability": "view",
      "type": "function",
      "constant": true
    },
    {
      "inputs": [
        {
          "internalType": "address",
          "name": "account",
          "type": "address"
        }
      ],
      "name": "getAccountBalances",
      "outputs": [
        {
          "internalType": "uint256",
          "name": "",
          "type": "uint256"
        }
      ],
      "stateMutability": "view",
      "type": "function",
      "constant": true
    },
    {
      "inputs": [
        {
          "internalType": "uint256",
          "name": "_rate",
          "type": "uint256"
        }
      ],
      "name": "setRate",
      "outputs": [],
      "stateMutability": "nonpayable",
      "type": "function"
    },
    {
      "inputs": [],
      "name": "getRate",
      "outputs": [
        {
          "internalType": "uint256",
          "name": "",
          "type": "uint256"
        }
      ],
      "stateMutability": "view",
      "type": "function",
      "constant": true
    },
    {
      "inputs": [
        {
          "internalType": "uint256",
          "name": "_amount",
          "type": "uint256"
        }
      ],
      "name": "deposit",
      "outputs": [],
      "stateMutability": "nonpayable",
      "type": "function"
    },
    {
      "inputs": [],
      "name": "withDrawBNB",
      "outputs": [],
      "stateMutability": "nonpayable",
      "type": "function"
    },
    {
      "inputs": [
        {
          "internalType": "address",
          "name": "recipent",
          "type": "address"
        },
        {
          "internalType": "uint256",
          "name": "_amount",
          "type": "uint256"
        }
      ],
      "name": "withdraw",
      "outputs": [],
      "stateMutability": "nonpayable",
      "type": "function"
    }
  ],
  "bytecode": "0x6080604052662386f26fc100006002556001600360006101000a81548160ff0219169083151502179055503480156200003757600080fd5b5060405162001cce38038062001cce83398181016040528101906200005d91906200015d565b33600160006101000a81548173ffffffffffffffffffffffffffffffffffffffff021916908373ffffffffffffffffffffffffffffffffffffffff160217905550806000806101000a81548173ffffffffffffffffffffffffffffffffffffffff021916908373ffffffffffffffffffffffffffffffffffffffff160217905550662386f26fc10000600281905550506200018f565b600080fd5b600073ffffffffffffffffffffffffffffffffffffffff82169050919050565b60006200012582620000f8565b9050919050565b620001378162000118565b81146200014357600080fd5b50565b60008151905062000157816200012c565b92915050565b600060208284031215620001765762000175620000f3565b5b6000620001868482850162000146565b91505092915050565b611b2f806200019f6000396000f3fe6080604052600436106100f35760003560e01c8063679aefce1161008a578063c241267611610059578063c2412676146102f3578063d0febe4c1461031e578063f3fef3a314610328578063ffd2a7d314610351576100f3565b8063679aefce1461023757806367a5b10b14610262578063b4a99a4e1461029f578063b6b55f25146102ca576100f3565b806334fcf437116100c657806334fcf4371461017a5780633d2bd035146101a35780634bae6f3f146101cf578063564566a81461020c576100f3565b8063049c5c49146100f8578063144fa6d71461010f5780631b8e94a1146101385780631eb7b06614610163575b600080fd5b34801561010457600080fd5b5061010d61037c565b005b34801561011b57600080fd5b50610136600480360381019061013191906110d5565b61047e565b005b34801561014457600080fd5b5061014d6104c1565b60405161015a919061111b565b60405180910390f35b34801561016f57600080fd5b506101786104c7565b005b34801561018657600080fd5b506101a1600480360381019061019c9190611162565b6105e9565b005b3480156101af57600080fd5b506101b86106c6565b6040516101c692919061130b565b60405180910390f35b3480156101db57600080fd5b506101f660048036038101906101f191906110d5565b610871565b604051610203919061111b565b60405180910390f35b34801561021857600080fd5b50610221610889565b60405161022e919061135d565b60405180910390f35b34801561024357600080fd5b5061024c61089c565b604051610259919061111b565b60405180910390f35b34801561026e57600080fd5b50610289600480360381019061028491906110d5565b6108a6565b604051610296919061111b565b60405180910390f35b3480156102ab57600080fd5b506102b461094a565b6040516102c19190611387565b60405180910390f35b3480156102d657600080fd5b506102f160048036038101906102ec9190611162565b610970565b005b3480156102ff57600080fd5b50610308610ae7565b6040516103159190611401565b60405180910390f35b610326610b0b565b005b34801561033457600080fd5b5061034f600480360381019061034a919061141c565b610ef4565b005b34801561035d57600080fd5b5061036661106a565b604051610373919061111b565b60405180910390f35b600160009054906101000a900473ffffffffffffffffffffffffffffffffffffffff1673ffffffffffffffffffffffffffffffffffffffff163373ffffffffffffffffffffffffffffffffffffffff161461040c576040517f08c379a0000000000000000000000000000000000000000000000000000000008152600401610403906114b9565b60405180910390fd5b600360009054906101000a900460ff1615600360006101000a81548160ff0219169083151502179055507ff3637cdf61687bb87179d2da614bc1f4aa93c3cbf40282ccd0a15ecad9184cc1600360009054906101000a900460ff16604051610474919061135d565b60405180910390a1565b806000806101000a81548173ffffffffffffffffffffffffffffffffffffffff021916908373ffffffffffffffffffffffffffffffffffffffff16021790555050565b60025481565b600160009054906101000a900473ffffffffffffffffffffffffffffffffffffffff1673ffffffffffffffffffffffffffffffffffffffff163373ffffffffffffffffffffffffffffffffffffffff1614610557576040517f08c379a000000000000000000000000000000000000000000000000000000000815260040161054e906114b9565b60405180910390fd5b60004790506000811161059f576040517f08c379a000000000000000000000000000000000000000000000000000000000815260040161059690611525565b60405180910390fd5b3373ffffffffffffffffffffffffffffffffffffffff166108fc829081150290604051600060405180830381858888f193505050501580156105e5573d6000803e3d6000fd5b5050565b600160009054906101000a900473ffffffffffffffffffffffffffffffffffffffff1673ffffffffffffffffffffffffffffffffffffffff163373ffffffffffffffffffffffffffffffffffffffff1614610679576040517f08c379a0000000000000000000000000000000000000000000000000000000008152600401610670906114b9565b60405180910390fd5b600081116106bc576040517f08c379a00000000000000000000000000000000000000000000000000000000081526004016106b390611591565b60405180910390fd5b8060028190555050565b6060806000600580549050905060008167ffffffffffffffff8111156106ef576106ee6115b1565b5b60405190808252806020026020018201604052801561071d5781602001602082028036833780820191505090505b50905060005b828110156107db576004600060058381548110610743576107426115e0565b5b9060005260206000200160009054906101000a900473ffffffffffffffffffffffffffffffffffffffff1673ffffffffffffffffffffffffffffffffffffffff1673ffffffffffffffffffffffffffffffffffffffff168152602001908152602001600020548282815181106107bc576107bb6115e0565b5b60200260200101818152505080806107d39061163e565b915050610723565b508060058080548060200260200160405190810160405280929190818152602001828054801561086057602002820191906000526020600020905b8160009054906101000a900473ffffffffffffffffffffffffffffffffffffffff1673ffffffffffffffffffffffffffffffffffffffff1681526020019060010190808311610816575b505050505090509350935050509091565b60046020528060005260406000206000915090505481565b600360009054906101000a900460ff1681565b6000600254905090565b60008060009054906101000a900473ffffffffffffffffffffffffffffffffffffffff1673ffffffffffffffffffffffffffffffffffffffff166370a08231836040518263ffffffff1660e01b81526004016109029190611387565b602060405180830381865afa15801561091f573d6000803e3d6000fd5b505050506040513d601f19601f82011682018060405250810190610943919061169b565b9050919050565b600160009054906101000a900473ffffffffffffffffffffffffffffffffffffffff1681565b600160009054906101000a900473ffffffffffffffffffffffffffffffffffffffff1673ffffffffffffffffffffffffffffffffffffffff163373ffffffffffffffffffffffffffffffffffffffff1614610a00576040517f08c379a00000000000000000000000000000000000000000000000000000000081526004016109f7906114b9565b60405180910390fd5b60008111610a43576040517f08c379a0000000000000000000000000000000000000000000000000000000008152600401610a3a9061173a565b60405180910390fd5b60008054906101000a900473ffffffffffffffffffffffffffffffffffffffff1673ffffffffffffffffffffffffffffffffffffffff166323b872dd3330846040518463ffffffff1660e01b8152600401610aa09392919061175a565b6020604051808303816000875af1158015610abf573d6000803e3d6000fd5b505050506040513d601f19601f82011682018060405250810190610ae391906117bd565b5050565b60008054906101000a900473ffffffffffffffffffffffffffffffffffffffff1681565b60003411610b4e576040517f08c379a0000000000000000000000000000000000000000000000000000000008152600401610b4590611836565b60405180910390fd5b600360009054906101000a900460ff16610b9d576040517f08c379a0000000000000000000000000000000000000000000000000000000008152600401610b94906118a2565b60405180910390fd5b6000670de0b6b3a764000060025434610bb691906118f1565b610bc09190611922565b905060008060009054906101000a900473ffffffffffffffffffffffffffffffffffffffff1673ffffffffffffffffffffffffffffffffffffffff166370a08231306040518263ffffffff1660e01b8152600401610c1e9190611387565b602060405180830381865afa158015610c3b573d6000803e3d6000fd5b505050506040513d601f19601f82011682018060405250810190610c5f919061169b565b905060008211610ca4576040517f08c379a0000000000000000000000000000000000000000000000000000000008152600401610c9b906119ee565b60405180910390fd5b80821115610ce7576040517f08c379a0000000000000000000000000000000000000000000000000000000008152600401610cde90611a5a565b60405180910390fd5b60008054906101000a900473ffffffffffffffffffffffffffffffffffffffff1673ffffffffffffffffffffffffffffffffffffffff1663a9059cbb33846040518363ffffffff1660e01b8152600401610d42929190611a7a565b6020604051808303816000875af1158015610d61573d6000803e3d6000fd5b505050506040513d601f19601f82011682018060405250810190610d8591906117bd565b5081600460003373ffffffffffffffffffffffffffffffffffffffff1673ffffffffffffffffffffffffffffffffffffffff1681526020019081526020016000206000828254610dd59190611aa3565b925050819055506000805b600580549050811015610e7a573373ffffffffffffffffffffffffffffffffffffffff1660058281548110610e1857610e176115e0565b5b9060005260206000200160009054906101000a900473ffffffffffffffffffffffffffffffffffffffff1673ffffffffffffffffffffffffffffffffffffffff1603610e675760019150610e7a565b8080610e729061163e565b915050610de0565b5060018103610e8b57505050610ef2565b6005339080600181540180825580915050600190039060005260206000200160009091909190916101000a81548173ffffffffffffffffffffffffffffffffffffffff021916908373ffffffffffffffffffffffffffffffffffffffff1602179055505050505b565b600160009054906101000a900473ffffffffffffffffffffffffffffffffffffffff1673ffffffffffffffffffffffffffffffffffffffff163373ffffffffffffffffffffffffffffffffffffffff1614610f84576040517f08c379a0000000000000000000000000000000000000000000000000000000008152600401610f7b906114b9565b60405180910390fd5b60008111610fc7576040517f08c379a0000000000000000000000000000000000000000000000000000000008152600401610fbe9061173a565b60405180910390fd5b60008054906101000a900473ffffffffffffffffffffffffffffffffffffffff1673ffffffffffffffffffffffffffffffffffffffff1663a9059cbb83836040518363ffffffff1660e01b8152600401611022929190611a7a565b6020604051808303816000875af1158015611041573d6000803e3d6000fd5b505050506040513d601f19601f8201168201806040525081019061106591906117bd565b505050565b600047905090565b600080fd5b600073ffffffffffffffffffffffffffffffffffffffff82169050919050565b60006110a282611077565b9050919050565b6110b281611097565b81146110bd57600080fd5b50565b6000813590506110cf816110a9565b92915050565b6000602082840312156110eb576110ea611072565b5b60006110f9848285016110c0565b91505092915050565b6000819050919050565b61111581611102565b82525050565b6000602082019050611130600083018461110c565b92915050565b61113f81611102565b811461114a57600080fd5b50565b60008135905061115c81611136565b92915050565b60006020828403121561117857611177611072565b5b60006111868482850161114d565b91505092915050565b600081519050919050565b600082825260208201905092915050565b6000819050602082019050919050565b6111c481611102565b82525050565b60006111d683836111bb565b60208301905092915050565b6000602082019050919050565b60006111fa8261118f565b611204818561119a565b935061120f836111ab565b8060005b8381101561124057815161122788826111ca565b9750611232836111e2565b925050600181019050611213565b5085935050505092915050565b600081519050919050565b600082825260208201905092915050565b6000819050602082019050919050565b61128281611097565b82525050565b60006112948383611279565b60208301905092915050565b6000602082019050919050565b60006112b88261124d565b6112c28185611258565b93506112cd83611269565b8060005b838110156112fe5781516112e58882611288565b97506112f0836112a0565b9250506001810190506112d1565b5085935050505092915050565b6000604082019050818103600083015261132581856111ef565b9050818103602083015261133981846112ad565b90509392505050565b60008115159050919050565b61135781611342565b82525050565b6000602082019050611372600083018461134e565b92915050565b61138181611097565b82525050565b600060208201905061139c6000830184611378565b92915050565b6000819050919050565b60006113c76113c26113bd84611077565b6113a2565b611077565b9050919050565b60006113d9826113ac565b9050919050565b60006113eb826113ce565b9050919050565b6113fb816113e0565b82525050565b600060208201905061141660008301846113f2565b92915050565b6000806040838503121561143357611432611072565b5b6000611441858286016110c0565b92505060206114528582860161114d565b9150509250929050565b600082825260208201905092915050565b7f796f7520617265206e6f74204f776e6572000000000000000000000000000000600082015250565b60006114a360118361145c565b91506114ae8261146d565b602082019050919050565b600060208201905081810360008301526114d281611496565b9050919050565b7f4e6f20424e4220746f2077697468647261770000000000000000000000000000600082015250565b600061150f60128361145c565b915061151a826114d9565b602082019050919050565b6000602082019050818103600083015261153e81611502565b9050919050565b7f6973206e6f74207261746520657175616c65205a65726f000000000000000000600082015250565b600061157b60178361145c565b915061158682611545565b602082019050919050565b600060208201905081810360008301526115aa8161156e565b9050919050565b7f4e487b7100000000000000000000000000000000000000000000000000000000600052604160045260246000fd5b7f4e487b7100000000000000000000000000000000000000000000000000000000600052603260045260246000fd5b7f4e487b7100000000000000000000000000000000000000000000000000000000600052601160045260246000fd5b600061164982611102565b91507fffffffffffffffffffffffffffffffffffffffffffffffffffffffffffffffff820361167b5761167a61160f565b5b600182019050919050565b60008151905061169581611136565b92915050565b6000602082840312156116b1576116b0611072565b5b60006116bf84828501611686565b91505092915050565b7f54686520616d6f756e74206973206e6f7420616c6c6f77656420746f2062652060008201527f6c657373206f7220617175616c20746f205a65726f0000000000000000000000602082015250565b600061172460358361145c565b915061172f826116c8565b604082019050919050565b6000602082019050818103600083015261175381611717565b9050919050565b600060608201905061176f6000830186611378565b61177c6020830185611378565b611789604083018461110c565b949350505050565b61179a81611342565b81146117a557600080fd5b50565b6000815190506117b781611791565b92915050565b6000602082840312156117d3576117d2611072565b5b60006117e1848285016117a8565b91505092915050565b7f53656e6420424e4220746f2062757920546f6b656e7300000000000000000000600082015250565b600061182060168361145c565b915061182b826117ea565b602082019050919050565b6000602082019050818103600083015261184f81611813565b9050919050565b7f546f6b656e732073616c652069732063757272656e746c792070617573656400600082015250565b600061188c601f8361145c565b915061189782611856565b602082019050919050565b600060208201905081810360008301526118bb8161187f565b9050919050565b7f4e487b7100000000000000000000000000000000000000000000000000000000600052601260045260246000fd5b60006118fc82611102565b915061190783611102565b925082611917576119166118c2565b5b828204905092915050565b600061192d82611102565b915061193883611102565b9250817fffffffffffffffffffffffffffffffffffffffffffffffffffffffffffffffff04831182151516156119715761197061160f565b5b828202905092915050565b7f4e6f7420656e6f75676820424e422073656e7420666f7220616e7920746f6b6560008201527f6e73000000000000000000000000000000000000000000000000000000000000602082015250565b60006119d860228361145c565b91506119e38261197c565b604082019050919050565b60006020820190508181036000830152611a07816119cb565b9050919050565b7f4e6f7420656e6f75676820746f6b656e20696e2074686520436f6e7472616374600082015250565b6000611a4460208361145c565b9150611a4f82611a0e565b602082019050919050565b60006020820190508181036000830152611a7381611a37565b9050919050565b6000604082019050611a8f6000830185611378565b611a9c602083018461110c565b9392505050565b6000611aae82611102565b9150611ab983611102565b9250827fffffffffffffffffffffffffffffffffffffffffffffffffffffffffffffffff03821115611aee57611aed61160f565b5b82820190509291505056fea26469706673582212208813ae356c6883d3699da43e47fe41698221eb6ec3f15d348afd14157cd2459a64736f6c634300080d0033",
  "immutableReferences": {},
  "source": "// SPDX-License-Identifier: MIT \r\npragma solidity >=0.8.13;\r\n\r\nimport \"@openzeppelin/contracts/token/ERC20/IERC20.sol\";\r\nimport \"@openzeppelin/contracts/token/ERC20/ERC20.sol\";\r\n// import \"@openzeppelin/contracts/access/Ownable.sol\";\r\n\r\n\r\n\r\ncontract Pool {\r\n\r\n    // Buy  \r\n    // Sale  \r\n    // Deposit \r\n    // withdraw  \r\n    // Rate   \r\n    // cost \r\n    // purchased  \r\n    // balance \r\n    // total supply  \r\n    // approve \r\n    // burn \r\n    // paused  \r\n    \r\n    // decimals=18\r\n    // 1 BNB = 10 ** 18 wei\r\n    // 1 token= 10 ** 18 wei \r\n    // 0.01 BNB = 0.01 * (10 ** 18)wei= 10 ** 16 wei\r\n    // price token = 1000 tokens => 10 BNB \r\n    //             = 1000 / 10 = 0.01 BNB\r\n    // price token = 0.01 BNB  = 10 ** 16 wei\r\n    // price token = 7 USD ==> 1 BNB = 700 USD\r\n    // \r\n\r\n\r\n   // instance ERC20\r\n\r\n   IERC20 public Token;\r\n   address public Owner;\r\n\r\n   // Price Tokens\r\n    uint256 public Rate=10**16; // 0.01 BNB\r\n    bool public isSaleActive=true;\r\n\r\n\r\n    // mapping address Purchased tokens\r\n    mapping(address => uint256) public purchasedTokens;\r\n    address[] purchasedAccounts;\r\n   // events\r\n    event SaleStatusChanged(bool isActive);\r\n    event TokensBuyPurchased(address indexed buyer,uint256 amount,uint256 cost);\r\n    event BalanceWithdraw(address indexed owner,uint256 amount);\r\n\r\n\r\n    constructor(address _tokenAddress) {\r\n       Owner=msg.sender;\r\n       //set Token in this contract\r\n       Token = IERC20(_tokenAddress);\r\n       Rate=10**16;\r\n    }\r\n\r\n    // set Token in this contract\r\n    function setToken(address _tokenAddress) external {\r\n        Token = IERC20(_tokenAddress);\r\n    }\r\n\r\n\r\n\r\n    // change status sale Tokens\r\n    function toggleSaleStatus()external{\r\n        require(msg.sender == Owner, \"you are not Owner\");\r\n        \r\n        isSaleActive= !isSaleActive;\r\n        emit SaleStatusChanged(isSaleActive);\r\n    }\r\n\r\n      // buy Tokens\r\n    function buyTokens()external payable{\r\n        require(msg.value > 0,\"Send BNB to buy Tokens\");\r\n\r\n       require(isSaleActive,\"Tokens sale is currently paused\");\r\n        //      \r\n        uint256 tokensToBuy= (msg.value / Rate) * 10**18;\r\n        \r\n        //     \r\n        uint256 contractBalance=Token.balanceOf(address(this));\r\n\r\n        require(tokensToBuy > 0,\"Not enough BNB sent for any tokens\");\r\n        require(tokensToBuy <= contractBalance, \"Not enough token in the Contract\");\r\n\r\n        //       \r\n        Token.transfer(msg.sender,tokensToBuy);\r\n\r\n        //save address and token to buy\r\n        purchasedTokens[msg.sender]+=tokensToBuy;\r\n        uint f=0;\r\n        for(uint256 i=0;i<purchasedAccounts.length;i++){\r\n            if(purchasedAccounts[i]==msg.sender){f=1;break; }\r\n        }\r\n        if(f==1) return ;\r\n        purchasedAccounts.push(msg.sender);\r\n\r\n    }\r\n\r\n\r\n  // get PurchasedTkens\r\n   function getPurchased()view external returns( uint256[] memory,address[] memory){\r\n    uint256 length=purchasedAccounts.length;\r\n    uint256[] memory purchasedValue=new uint256[](length);\r\n    for(uint256 i=0;i<length;i++){\r\n       purchasedValue[i]=purchasedTokens[purchasedAccounts[i]];\r\n    }\r\n\r\n    return (purchasedValue,purchasedAccounts);\r\n   }\r\n\r\n\r\n\r\n // get total balances contract\r\n   function getContractBalances()external view returns(uint256){\r\n    return address(this).balance;\r\n   }\r\n\r\n\r\n\r\n   // get account balance\r\n     function getAccountBalances(address account)external view returns(uint256){\r\n    return Token.balanceOf(account) ;\r\n   }\r\n\r\n\r\n    function setRate(uint256 _rate)external {\r\n         require(msg.sender == Owner, \"you are not Owner\");\r\n         require(_rate>0,\"is not rate equale Zero\");\r\n         Rate=_rate;\r\n    }\r\n    function getRate() view external returns (uint){\r\n        return Rate ; //rate / (10**18) this is 0 , by correct result => (rate * (10**18)) / 10**18 = 0.01\r\n    }\r\n\r\n\r\n    // deposite\r\n    //ACCOUNT --> CONTRACT\r\n    function deposit(uint _amount) external {\r\n        require(msg.sender == Owner, \"you are not Owner\");\r\n        \r\n        require(_amount > 0,\"The amount is not allowed to be less or aqual to Zero\");\r\n\r\n        Token.transferFrom(msg.sender, address(this), _amount);\r\n    }\r\n    \r\n\r\n    // withdraw\r\n    //CONTRACT --> OWNER ==> balnace this contract\r\n    function withDrawBNB() external {\r\n         require(msg.sender == Owner, \"you are not Owner\");\r\n\r\n        //      \r\n        uint256 balance= address(this).balance;\r\n\r\n        require(balance > 0,\"No BNB to withdraw\");\r\n\r\n        // transfer balance to owner\r\n        payable(msg.sender).transfer(balance);\r\n    }\r\n   \r\n\r\n    // withdraw\r\n    //CONTRACT -->ANY ACCOUNT\r\n     function withdraw(address recipent,uint256 _amount) external {\r\n            require(msg.sender == Owner, \"you are not Owner\");\r\n            \r\n            require(_amount > 0,\"The amount is not allowed to be less or aqual to Zero\");\r\n\r\n            // check balance\r\n            Token.transfer(recipent, _amount);\r\n    }\r\n\r\n\r\n\r\n\r\n\r\n}",
  "sourcePath": "C:\\Users\\Basheer\\Desktop\\Goat_Coin\\contracts\\Pool.sol",
  "compiler": {
    "name": "solc",
    "version": "0.8.13+commit.abaa5c0e.Emscripten.clang"
  },
  "schemaVersion": "3.4.3",
  "updatedAt": "2024-12-18T19:22:23.507Z",
  "networkType": "ethereum",
  "devdoc": {
    "kind": "dev",
    "methods": {},
    "version": 1
  },
  "userdoc": {
    "kind": "user",
    "methods": {},
    "version": 1
  }
}