{
  "contractName": "Token",
  "abi": [
    {
      "inputs": [],
      "stateMutability": "nonpayable",
      "type": "constructor"
    },
    {
      "inputs": [
        {
          "internalType": "address",
          "name": "spender",
          "type": "address"
        },
        {
          "internalType": "uint256",
          "name": "allowance",
          "type": "uint256"
        },
        {
          "internalType": "uint256",
          "name": "needed",
          "type": "uint256"
        }
      ],
      "name": "ERC20InsufficientAllowance",
      "type": "error"
    },
    {
      "inputs": [
        {
          "internalType": "address",
          "name": "sender",
          "type": "address"
        },
        {
          "internalType": "uint256",
          "name": "balance",
          "type": "uint256"
        },
        {
          "internalType": "uint256",
          "name": "needed",
          "type": "uint256"
        }
      ],
      "name": "ERC20InsufficientBalance",
      "type": "error"
    },
    {
      "inputs": [
        {
          "internalType": "address",
          "name": "approver",
          "type": "address"
        }
      ],
      "name": "ERC20InvalidApprover",
      "type": "error"
    },
    {
      "inputs": [
        {
          "internalType": "address",
          "name": "receiver",
          "type": "address"
        }
      ],
      "name": "ERC20InvalidReceiver",
      "type": "error"
    },
    {
      "inputs": [
        {
          "internalType": "address",
          "name": "sender",
          "type": "address"
        }
      ],
      "name": "ERC20InvalidSender",
      "type": "error"
    },
    {
      "inputs": [
        {
          "internalType": "address",
          "name": "spender",
          "type": "address"
        }
      ],
      "name": "ERC20InvalidSpender",
      "type": "error"
    },
    {
      "anonymous": false,
      "inputs": [
        {
          "indexed": true,
          "internalType": "address",
          "name": "owner",
          "type": "address"
        },
        {
          "indexed": true,
          "internalType": "address",
          "name": "spender",
          "type": "address"
        },
        {
          "indexed": false,
          "internalType": "uint256",
          "name": "value",
          "type": "uint256"
        }
      ],
      "name": "Approval",
      "type": "event"
    },
    {
      "anonymous": false,
      "inputs": [
        {
          "indexed": true,
          "internalType": "address",
          "name": "from",
          "type": "address"
        },
        {
          "indexed": true,
          "internalType": "address",
          "name": "to",
          "type": "address"
        },
        {
          "indexed": false,
          "internalType": "uint256",
          "name": "value",
          "type": "uint256"
        }
      ],
      "name": "Transfer",
      "type": "event"
    },
    {
      "inputs": [],
      "name": "Owner",
      "outputs": [
        {
          "internalType": "address",
          "name": "",
          "type": "address"
        }
      ],
      "stateMutability": "view",
      "type": "function",
      "constant": true
    },
    {
      "inputs": [
        {
          "internalType": "address",
          "name": "owner",
          "type": "address"
        },
        {
          "internalType": "address",
          "name": "spender",
          "type": "address"
        }
      ],
      "name": "allowance",
      "outputs": [
        {
          "internalType": "uint256",
          "name": "",
          "type": "uint256"
        }
      ],
      "stateMutability": "view",
      "type": "function",
      "constant": true
    },
    {
      "inputs": [
        {
          "internalType": "address",
          "name": "spender",
          "type": "address"
        },
        {
          "internalType": "uint256",
          "name": "value",
          "type": "uint256"
        }
      ],
      "name": "approve",
      "outputs": [
        {
          "internalType": "bool",
          "name": "",
          "type": "bool"
        }
      ],
      "stateMutability": "nonpayable",
      "type": "function"
    },
    {
      "inputs": [
        {
          "internalType": "address",
          "name": "account",
          "type": "address"
        }
      ],
      "name": "balanceOf",
      "outputs": [
        {
          "internalType": "uint256",
          "name": "",
          "type": "uint256"
        }
      ],
      "stateMutability": "view",
      "type": "function",
      "constant": true
    },
    {
      "inputs": [],
      "name": "decimals",
      "outputs": [
        {
          "internalType": "uint8",
          "name": "",
          "type": "uint8"
        }
      ],
      "stateMutability": "view",
      "type": "function",
      "constant": true
    },
    {
      "inputs": [],
      "name": "name",
      "outputs": [
        {
          "internalType": "string",
          "name": "",
          "type": "string"
        }
      ],
      "stateMutability": "view",
      "type": "function",
      "constant": true
    },
    {
      "inputs": [],
      "name": "symbol",
      "outputs": [
        {
          "internalType": "string",
          "name": "",
          "type": "string"
        }
      ],
      "stateMutability": "view",
      "type": "function",
      "constant": true
    },
    {
      "inputs": [],
      "name": "totalSupply",
      "outputs": [
        {
          "internalType": "uint256",
          "name": "",
          "type": "uint256"
        }
      ],
      "stateMutability": "view",
      "type": "function",
      "constant": true
    },
    {
      "inputs": [
        {
          "internalType": "address",
          "name": "to",
          "type": "address"
        },
        {
          "internalType": "uint256",
          "name": "value",
          "type": "uint256"
        }
      ],
      "name": "transfer",
      "outputs": [
        {
          "internalType": "bool",
          "name": "",
          "type": "bool"
        }
      ],
      "stateMutability": "nonpayable",
      "type": "function"
    },
    {
      "inputs": [
        {
          "internalType": "address",
          "name": "from",
          "type": "address"
        },
        {
          "internalType": "address",
          "name": "to",
          "type": "address"
        },
        {
          "internalType": "uint256",
          "name": "value",
          "type": "uint256"
        }
      ],
      "name": "transferFrom",
      "outputs": [
        {
          "internalType": "bool",
          "name": "",
          "type": "bool"
        }
      ],
      "stateMutability": "nonpayable",
      "type": "function"
    },
    {
      "inputs": [
        {
          "internalType": "uint256",
          "name": "totalSupply",
          "type": "uint256"
        }
      ],
      "name": "mintTokens",
      "outputs": [],
      "stateMutability": "nonpayable",
      "type": "function"
    },
    {
      "inputs": [],
      "name": "getYourBalance",
      "outputs": [
        {
          "internalType": "uint256",
          "name": "",
          "type": "uint256"
        }
      ],
      "stateMutability": "view",
      "type": "function",
      "constant": true
    },
    {
      "inputs": [
        {
          "internalType": "address",
          "name": "account",
          "type": "address"
        },
        {
          "internalType": "uint256",
          "name": "amount",
          "type": "uint256"
        }
      ],
      "name": "burnTokens",
      "outputs": [],
      "stateMutability": "nonpayable",
      "type": "function"
    }
  ],
  "bytecode": "0x60806040523480156200001157600080fd5b506040518060400160405280600881526020017f42535020436f696e0000000000000000000000000000000000000000000000008152506040518060400160405280600481526020017f4253504100000000000000000000000000000000000000000000000000000000815250816003908051906020019062000096929190620003fc565b508060049080519060200190620000af929190620003fc565b50505033600560006101000a81548173ffffffffffffffffffffffffffffffffffffffff021916908373ffffffffffffffffffffffffffffffffffffffff1602179055506200013033620001086200013660201b60201c565b600a62000116919062000646565b606462000124919062000697565b6200013f60201b60201c565b62000886565b60006012905090565b600073ffffffffffffffffffffffffffffffffffffffff168273ffffffffffffffffffffffffffffffffffffffff1603620001b45760006040517fec442f05000000000000000000000000000000000000000000000000000000008152600401620001ab91906200073d565b60405180910390fd5b620001c860008383620001cc60201b60201c565b5050565b600073ffffffffffffffffffffffffffffffffffffffff168373ffffffffffffffffffffffffffffffffffffffff1603620002225780600260008282546200021591906200075a565b92505081905550620002f8565b60008060008573ffffffffffffffffffffffffffffffffffffffff1673ffffffffffffffffffffffffffffffffffffffff16815260200190815260200160002054905081811015620002b1578381836040517fe450d38c000000000000000000000000000000000000000000000000000000008152600401620002a893929190620007c8565b60405180910390fd5b8181036000808673ffffffffffffffffffffffffffffffffffffffff1673ffffffffffffffffffffffffffffffffffffffff16815260200190815260200160002081905550505b600073ffffffffffffffffffffffffffffffffffffffff168273ffffffffffffffffffffffffffffffffffffffff160362000343578060026000828254039250508190555062000390565b806000808473ffffffffffffffffffffffffffffffffffffffff1673ffffffffffffffffffffffffffffffffffffffff168152602001908152602001600020600082825401925050819055505b8173ffffffffffffffffffffffffffffffffffffffff168373ffffffffffffffffffffffffffffffffffffffff167fddf252ad1be2c89b69c2b068fc378daa952ba7f163c4a11628f55a4df523b3ef83604051620003ef919062000805565b60405180910390a3505050565b8280546200040a9062000851565b90600052602060002090601f0160209004810192826200042e57600085556200047a565b82601f106200044957805160ff19168380011785556200047a565b828001600101855582156200047a579182015b82811115620004795782518255916020019190600101906200045c565b5b5090506200048991906200048d565b5090565b5b80821115620004a85760008160009055506001016200048e565b5090565b7f4e487b7100000000000000000000000000000000000000000000000000000000600052601160045260246000fd5b60008160011c9050919050565b6000808291508390505b60018511156200053a57808604811115620005125762000511620004ac565b5b6001851615620005225780820291505b80810290506200053285620004db565b9450620004f2565b94509492505050565b60008262000555576001905062000628565b8162000565576000905062000628565b81600181146200057e57600281146200058957620005bf565b600191505062000628565b60ff8411156200059e576200059d620004ac565b5b8360020a915084821115620005b857620005b7620004ac565b5b5062000628565b5060208310610133831016604e8410600b8410161715620005f95782820a905083811115620005f357620005f2620004ac565b5b62000628565b620006088484846001620004e8565b92509050818404811115620006225762000621620004ac565b5b81810290505b9392505050565b6000819050919050565b600060ff82169050919050565b600062000653826200062f565b9150620006608362000639565b92506200068f7fffffffffffffffffffffffffffffffffffffffffffffffffffffffffffffffff848462000543565b905092915050565b6000620006a4826200062f565b9150620006b1836200062f565b9250817fffffffffffffffffffffffffffffffffffffffffffffffffffffffffffffffff0483118215151615620006ed57620006ec620004ac565b5b828202905092915050565b600073ffffffffffffffffffffffffffffffffffffffff82169050919050565b60006200072582620006f8565b9050919050565b620007378162000718565b82525050565b60006020820190506200075460008301846200072c565b92915050565b600062000767826200062f565b915062000774836200062f565b9250827fffffffffffffffffffffffffffffffffffffffffffffffffffffffffffffffff03821115620007ac57620007ab620004ac565b5b828201905092915050565b620007c2816200062f565b82525050565b6000606082019050620007df60008301866200072c565b620007ee6020830185620007b7565b620007fd6040830184620007b7565b949350505050565b60006020820190506200081c6000830184620007b7565b92915050565b7f4e487b7100000000000000000000000000000000000000000000000000000000600052602260045260246000fd5b600060028204905060018216806200086a57607f821691505b60208210810362000880576200087f62000822565b5b50919050565b61179b80620008966000396000f3fe608060405234801561001057600080fd5b50600436106100cf5760003560e01c806370a082311161008c578063a331e16a11610066578063a331e16a14610214578063a9059cbb14610232578063b4a99a4e14610262578063dd62ed3e14610280576100cf565b806370a08231146101aa57806395d89b41146101da57806397304ced146101f8576100cf565b806306fdde03146100d4578063095ea7b3146100f25780630d1118ce1461012257806318160ddd1461013e57806323b872dd1461015c578063313ce5671461018c575b600080fd5b6100dc6102b0565b6040516100e99190610f00565b60405180910390f35b61010c60048036038101906101079190610fbb565b610342565b6040516101199190611016565b60405180910390f35b61013c60048036038101906101379190610fbb565b610365565b005b6101466104cb565b6040516101539190611040565b60405180910390f35b6101766004803603810190610171919061105b565b6104d5565b6040516101839190611016565b60405180910390f35b610194610504565b6040516101a191906110ca565b60405180910390f35b6101c460048036038101906101bf91906110e5565b61050d565b6040516101d19190611040565b60405180910390f35b6101e2610555565b6040516101ef9190610f00565b60405180910390f35b610212600480360381019061020d9190611112565b6105e7565b005b61021c6106e5565b6040516102299190611040565b60405180910390f35b61024c60048036038101906102479190610fbb565b6106f5565b6040516102599190611016565b60405180910390f35b61026a610718565b604051610277919061114e565b60405180910390f35b61029a60048036038101906102959190611169565b61073e565b6040516102a79190611040565b60405180910390f35b6060600380546102bf906111d8565b80601f01602080910402602001604051908101604052809291908181526020018280546102eb906111d8565b80156103385780601f1061030d57610100808354040283529160200191610338565b820191906000526020600020905b81548152906001019060200180831161031b57829003601f168201915b5050505050905090565b60008061034d6107c5565b905061035a8185856107cd565b600191505092915050565b600560009054906101000a900473ffffffffffffffffffffffffffffffffffffffff1673ffffffffffffffffffffffffffffffffffffffff163373ffffffffffffffffffffffffffffffffffffffff16146103f5576040517f08c379a00000000000000000000000000000000000000000000000000000000081526004016103ec90611255565b60405180910390fd5b60008111610438576040517f08c379a000000000000000000000000000000000000000000000000000000000815260040161042f906112e7565b60405180910390fd5b6000670de0b6b3a764000061046e600560009054906101000a900473ffffffffffffffffffffffffffffffffffffffff1661050d565b6104789190611365565b90508181106104bc576040517f08c379a00000000000000000000000000000000000000000000000000000000081526004016104b3906113e2565b60405180910390fd5b6104c683836107df565b505050565b6000600254905090565b6000806104e06107c5565b90506104ed858285610861565b6104f88585856108f5565b60019150509392505050565b60006012905090565b60008060008373ffffffffffffffffffffffffffffffffffffffff1673ffffffffffffffffffffffffffffffffffffffff168152602001908152602001600020549050919050565b606060048054610564906111d8565b80601f0160208091040260200160405190810160405280929190818152602001828054610590906111d8565b80156105dd5780601f106105b2576101008083540402835291602001916105dd565b820191906000526020600020905b8154815290600101906020018083116105c057829003601f168201915b5050505050905090565b600560009054906101000a900473ffffffffffffffffffffffffffffffffffffffff1673ffffffffffffffffffffffffffffffffffffffff163373ffffffffffffffffffffffffffffffffffffffff1614610677576040517f08c379a000000000000000000000000000000000000000000000000000000000815260040161066e9061144e565b60405180910390fd5b600081116106ba576040517f08c379a00000000000000000000000000000000000000000000000000000000081526004016106b1906114e0565b60405180910390fd5b6106e2336106c6610504565b600a6106d29190611633565b836106dd919061167e565b6109e9565b50565b60006106f03361050d565b905090565b6000806107006107c5565b905061070d8185856108f5565b600191505092915050565b600560009054906101000a900473ffffffffffffffffffffffffffffffffffffffff1681565b6000600160008473ffffffffffffffffffffffffffffffffffffffff1673ffffffffffffffffffffffffffffffffffffffff16815260200190815260200160002060008373ffffffffffffffffffffffffffffffffffffffff1673ffffffffffffffffffffffffffffffffffffffff16815260200190815260200160002054905092915050565b600033905090565b6107da8383836001610a6b565b505050565b600073ffffffffffffffffffffffffffffffffffffffff168273ffffffffffffffffffffffffffffffffffffffff16036108515760006040517f96c6fd1e000000000000000000000000000000000000000000000000000000008152600401610848919061114e565b60405180910390fd5b61085d82600083610c42565b5050565b600061086d848461073e565b90507fffffffffffffffffffffffffffffffffffffffffffffffffffffffffffffffff81146108ef57818110156108df578281836040517ffb8f41b20000000000000000000000000000000000000000000000000000000081526004016108d6939291906116d8565b60405180910390fd5b6108ee84848484036000610a6b565b5b50505050565b600073ffffffffffffffffffffffffffffffffffffffff168373ffffffffffffffffffffffffffffffffffffffff16036109675760006040517f96c6fd1e00000000000000000000000000000000000000000000000000000000815260040161095e919061114e565b60405180910390fd5b600073ffffffffffffffffffffffffffffffffffffffff168273ffffffffffffffffffffffffffffffffffffffff16036109d95760006040517fec442f050000000000000000000000000000000000000000000000000000000081526004016109d0919061114e565b60405180910390fd5b6109e4838383610c42565b505050565b600073ffffffffffffffffffffffffffffffffffffffff168273ffffffffffffffffffffffffffffffffffffffff1603610a5b5760006040517fec442f05000000000000000000000000000000000000000000000000000000008152600401610a52919061114e565b60405180910390fd5b610a6760008383610c42565b5050565b600073ffffffffffffffffffffffffffffffffffffffff168473ffffffffffffffffffffffffffffffffffffffff1603610add5760006040517fe602df05000000000000000000000000000000000000000000000000000000008152600401610ad4919061114e565b60405180910390fd5b600073ffffffffffffffffffffffffffffffffffffffff168373ffffffffffffffffffffffffffffffffffffffff1603610b4f5760006040517f94280d62000000000000000000000000000000000000000000000000000000008152600401610b46919061114e565b60405180910390fd5b81600160008673ffffffffffffffffffffffffffffffffffffffff1673ffffffffffffffffffffffffffffffffffffffff16815260200190815260200160002060008573ffffffffffffffffffffffffffffffffffffffff1673ffffffffffffffffffffffffffffffffffffffff168152602001908152602001600020819055508015610c3c578273ffffffffffffffffffffffffffffffffffffffff168473ffffffffffffffffffffffffffffffffffffffff167f8c5be1e5ebec7d5bd14f71427d1e84f3dd0314c0f7b2291e5b200ac8c7c3b92584604051610c339190611040565b60405180910390a35b50505050565b600073ffffffffffffffffffffffffffffffffffffffff168373ffffffffffffffffffffffffffffffffffffffff1603610c94578060026000828254610c88919061170f565b92505081905550610d67565b60008060008573ffffffffffffffffffffffffffffffffffffffff1673ffffffffffffffffffffffffffffffffffffffff16815260200190815260200160002054905081811015610d20578381836040517fe450d38c000000000000000000000000000000000000000000000000000000008152600401610d17939291906116d8565b60405180910390fd5b8181036000808673ffffffffffffffffffffffffffffffffffffffff1673ffffffffffffffffffffffffffffffffffffffff16815260200190815260200160002081905550505b600073ffffffffffffffffffffffffffffffffffffffff168273ffffffffffffffffffffffffffffffffffffffff1603610db05780600260008282540392505081905550610dfd565b806000808473ffffffffffffffffffffffffffffffffffffffff1673ffffffffffffffffffffffffffffffffffffffff168152602001908152602001600020600082825401925050819055505b8173ffffffffffffffffffffffffffffffffffffffff168373ffffffffffffffffffffffffffffffffffffffff167fddf252ad1be2c89b69c2b068fc378daa952ba7f163c4a11628f55a4df523b3ef83604051610e5a9190611040565b60405180910390a3505050565b600081519050919050565b600082825260208201905092915050565b60005b83811015610ea1578082015181840152602081019050610e86565b83811115610eb0576000848401525b50505050565b6000601f19601f8301169050919050565b6000610ed282610e67565b610edc8185610e72565b9350610eec818560208601610e83565b610ef581610eb6565b840191505092915050565b60006020820190508181036000830152610f1a8184610ec7565b905092915050565b600080fd5b600073ffffffffffffffffffffffffffffffffffffffff82169050919050565b6000610f5282610f27565b9050919050565b610f6281610f47565b8114610f6d57600080fd5b50565b600081359050610f7f81610f59565b92915050565b6000819050919050565b610f9881610f85565b8114610fa357600080fd5b50565b600081359050610fb581610f8f565b92915050565b60008060408385031215610fd257610fd1610f22565b5b6000610fe085828601610f70565b9250506020610ff185828601610fa6565b9150509250929050565b60008115159050919050565b61101081610ffb565b82525050565b600060208201905061102b6000830184611007565b92915050565b61103a81610f85565b82525050565b60006020820190506110556000830184611031565b92915050565b60008060006060848603121561107457611073610f22565b5b600061108286828701610f70565b935050602061109386828701610f70565b92505060406110a486828701610fa6565b9150509250925092565b600060ff82169050919050565b6110c4816110ae565b82525050565b60006020820190506110df60008301846110bb565b92915050565b6000602082840312156110fb576110fa610f22565b5b600061110984828501610f70565b91505092915050565b60006020828403121561112857611127610f22565b5b600061113684828501610fa6565b91505092915050565b61114881610f47565b82525050565b6000602082019050611163600083018461113f565b92915050565b600080604083850312156111805761117f610f22565b5b600061118e85828601610f70565b925050602061119f85828601610f70565b9150509250929050565b7f4e487b7100000000000000000000000000000000000000000000000000000000600052602260045260246000fd5b600060028204905060018216806111f057607f821691505b602082108103611203576112026111a9565b5b50919050565b7f796f7520617265206e6f74204f776e6572000000000000000000000000000000600082015250565b600061123f601183610e72565b915061124a82611209565b602082019050919050565b6000602082019050818103600083015261126e81611232565b9050919050565b7f54686520616d6f756e74206973206e6f7420616c6c6f77656420746f2062652060008201527f6c657373206f7220617175616c20746f205a65726f0000000000000000000000602082015250565b60006112d1603583610e72565b91506112dc82611275565b604082019050919050565b60006020820190508181036000830152611300816112c4565b9050919050565b7f4e487b7100000000000000000000000000000000000000000000000000000000600052601260045260246000fd5b7f4e487b7100000000000000000000000000000000000000000000000000000000600052601160045260246000fd5b600061137082610f85565b915061137b83610f85565b92508261138b5761138a611307565b5b828204905092915050565b7f4e6f7420656e6f75676820746f6b656e20696e2074686520436f6e7472616374600082015250565b60006113cc602083610e72565b91506113d782611396565b602082019050919050565b600060208201905081810360008301526113fb816113bf565b9050919050565b7f74686973206973206e6f74204f776e6572000000000000000000000000000000600082015250565b6000611438601183610e72565b915061144382611402565b602082019050919050565b600060208201905081810360008301526114678161142b565b9050919050565b7f4974206973206e6f7420616c6c6f77656420666f722074686520546f74616c5360008201527f7570706c7920746f206265205a65726f00000000000000000000000000000000602082015250565b60006114ca603083610e72565b91506114d58261146e565b604082019050919050565b600060208201905081810360008301526114f9816114bd565b9050919050565b60008160011c9050919050565b6000808291508390505b60018511156115575780860481111561153357611532611336565b5b60018516156115425780820291505b808102905061155085611500565b9450611517565b94509492505050565b600082611570576001905061162c565b8161157e576000905061162c565b8160018114611594576002811461159e576115cd565b600191505061162c565b60ff8411156115b0576115af611336565b5b8360020a9150848211156115c7576115c6611336565b5b5061162c565b5060208310610133831016604e8410600b84101617156116025782820a9050838111156115fd576115fc611336565b5b61162c565b61160f848484600161150d565b9250905081840481111561162657611625611336565b5b81810290505b9392505050565b600061163e82610f85565b9150611649836110ae565b92506116767fffffffffffffffffffffffffffffffffffffffffffffffffffffffffffffffff8484611560565b905092915050565b600061168982610f85565b915061169483610f85565b9250817fffffffffffffffffffffffffffffffffffffffffffffffffffffffffffffffff04831182151516156116cd576116cc611336565b5b828202905092915050565b60006060820190506116ed600083018661113f565b6116fa6020830185611031565b6117076040830184611031565b949350505050565b600061171a82610f85565b915061172583610f85565b9250827fffffffffffffffffffffffffffffffffffffffffffffffffffffffffffffffff0382111561175a57611759611336565b5b82820190509291505056fea2646970667358221220e508cd6e7402f009cc31bcb4dfa69afe08c4653d01eda7e5ad263b985e63582e64736f6c634300080d0033",
  "immutableReferences": {},
  "source": "// SPDX-License-Identifier: MIT\r\npragma solidity >=0.8.13;\r\n\r\nimport \"@openzeppelin/contracts/token/ERC20/ERC20.sol\";\r\n\r\ncontract Token is ERC20 {\r\n\r\n  address public Owner;\r\n    constructor () ERC20(\"BSP Coin\",\"BSPA\"){\r\n        Owner=msg.sender;\r\n       _mint(msg.sender,100 * 10 ** decimals());\r\n    }\r\n\r\n\r\n\r\n    // mthod create Tokens\r\n    function mintTokens(uint256 totalSupply) external {\r\n        require(msg.sender==Owner,\"this is not Owner\");\r\n        require(totalSupply > 0,\"It is not allowed for the TotalSupply to be Zero\");\r\n        \r\n       _mint(msg.sender,totalSupply * 10 ** decimals());\r\n    }\r\n\r\n   // get your balances\r\n     function getYourBalance() external view returns(uint256) {\r\n        return balanceOf(msg.sender);\r\n    }\r\n\r\n    // burn Tokens from account \r\n   function burnTokens(address account,uint256 amount)external {\r\n      require(msg.sender == Owner, \"you are not Owner\");\r\n\r\n      require(amount > 0,\"The amount is not allowed to be less or aqual to Zero\");\r\n\r\n       uint256 contractBalance= balanceOf(Owner) / (10**18);\r\n       require(contractBalance < amount,\"Not enough token in the Contract\"); \r\n      _burn(account,amount); \r\n   }\r\n\r\n}",
  "sourcePath": "C:\\Users\\Basheer\\Desktop\\Goat_Coin\\contracts\\Token.sol",
  "compiler": {
    "name": "solc",
    "version": "0.8.13+commit.abaa5c0e.Emscripten.clang"
  },
  "schemaVersion": "3.4.3",
  "updatedAt": "2024-12-18T19:22:23.440Z",
  "networkType": "ethereum",
  "devdoc": {
    "errors": {
      "ERC20InsufficientAllowance(address,uint256,uint256)": [
        {
          "details": "Indicates a failure with the `spender`s `allowance`. Used in transfers.",
          "params": {
            "allowance": "Amount of tokens a `spender` is allowed to operate with.",
            "needed": "Minimum amount required to perform a transfer.",
            "spender": "Address that may be allowed to operate on tokens without being their owner."
          }
        }
      ],
      "ERC20InsufficientBalance(address,uint256,uint256)": [
        {
          "details": "Indicates an error related to the current `balance` of a `sender`. Used in transfers.",
          "params": {
            "balance": "Current balance for the interacting account.",
            "needed": "Minimum amount required to perform a transfer.",
            "sender": "Address whose tokens are being transferred."
          }
        }
      ],
      "ERC20InvalidApprover(address)": [
        {
          "details": "Indicates a failure with the `approver` of a token to be approved. Used in approvals.",
          "params": {
            "approver": "Address initiating an approval operation."
          }
        }
      ],
      "ERC20InvalidReceiver(address)": [
        {
          "details": "Indicates a failure with the token `receiver`. Used in transfers.",
          "params": {
            "receiver": "Address to which tokens are being transferred."
          }
        }
      ],
      "ERC20InvalidSender(address)": [
        {
          "details": "Indicates a failure with the token `sender`. Used in transfers.",
          "params": {
            "sender": "Address whose tokens are being transferred."
          }
        }
      ],
      "ERC20InvalidSpender(address)": [
        {
          "details": "Indicates a failure with the `spender` to be approved. Used in approvals.",
          "params": {
            "spender": "Address that may be allowed to operate on tokens without being their owner."
          }
        }
      ]
    },
    "kind": "dev",
    "methods": {
      "allowance(address,address)": {
        "details": "See {IERC20-allowance}."
      },
      "approve(address,uint256)": {
        "details": "See {IERC20-approve}. NOTE: If `value` is the maximum `uint256`, the allowance is not updated on `transferFrom`. This is semantically equivalent to an infinite approval. Requirements: - `spender` cannot be the zero address."
      },
      "balanceOf(address)": {
        "details": "See {IERC20-balanceOf}."
      },
      "decimals()": {
        "details": "Returns the number of decimals used to get its user representation. For example, if `decimals` equals `2`, a balance of `505` tokens should be displayed to a user as `5.05` (`505 / 10 ** 2`). Tokens usually opt for a value of 18, imitating the relationship between Ether and Wei. This is the default value returned by this function, unless it's overridden. NOTE: This information is only used for _display_ purposes: it in no way affects any of the arithmetic of the contract, including {IERC20-balanceOf} and {IERC20-transfer}."
      },
      "name()": {
        "details": "Returns the name of the token."
      },
      "symbol()": {
        "details": "Returns the symbol of the token, usually a shorter version of the name."
      },
      "totalSupply()": {
        "details": "See {IERC20-totalSupply}."
      },
      "transfer(address,uint256)": {
        "details": "See {IERC20-transfer}. Requirements: - `to` cannot be the zero address. - the caller must have a balance of at least `value`."
      },
      "transferFrom(address,address,uint256)": {
        "details": "See {IERC20-transferFrom}. Skips emitting an {Approval} event indicating an allowance update. This is not required by the ERC. See {xref-ERC20-_approve-address-address-uint256-bool-}[_approve]. NOTE: Does not update the allowance if the current allowance is the maximum `uint256`. Requirements: - `from` and `to` cannot be the zero address. - `from` must have a balance of at least `value`. - the caller must have allowance for ``from``'s tokens of at least `value`."
      }
    },
    "version": 1
  },
  "userdoc": {
    "kind": "user",
    "methods": {},
    "version": 1
  }
}